{'txid': 'a176586f4a47810dce7a2066eb961ad5dba5806fa19d3c7ada55b2f54f178788', 
'hash': 'a176586f4a47810dce7a2066eb961ad5dba5806fa19d3c7ada55b2f54f178788', 
'version': 2, 'size': 188, 'vsize': 188, 'weight': 752, 'locktime': 0, 
'vin': [{'txid': 'c498f84960476a93af2edcb8c8c26c59d6dee27d0d44f9b954f3bd257a827a79', 'vout': 0, 'scriptSig': {'asm': '30440220450fb5aeed8dc351ec85899cb8fae17d77ea202e9b0c1e7433db4595dbed65de02205e6a726b3e87e533714e6b500d4ca6efd9d889e25e90c09b3f00387c06745ee1[ALL] 0227d85ba011276cf25b51df6a188b75e604b38770a462b2d0e9fb2fc839ef5d3f', 'hex': '4730440220450fb5aeed8dc351ec85899cb8fae17d77ea202e9b0c1e7433db4595dbed65de02205e6a726b3e87e533714e6b500d4ca6efd9d889e25e90c09b3f00387c06745ee101210227d85ba011276cf25b51df6a188b75e604b38770a462b2d0e9fb2fc839ef5d3f'}, 'sequence': 4294967293}], 'vout': [{'value': Decimal('1.00000000'), 'n': 0, 'scriptPubKey': {'asm': '0 b9bac27d84e1c0aea72edcd2167403c4411d96e5', 'desc': 'addr(bcrt1qhxavylvyu8q2afewmnfpvaqrc3q3m9h99asspx)#x9prmpm4', 'hex': '0014b9bac27d84e1c0aea72edcd2167403c4411d96e5', 'address': 'bcrt1qhxavylvyu8q2afewmnfpvaqrc3q3m9h99asspx', 'type': 'witness_v0_keyhash'}}], 'hex': '0200000001797a827a25bdf354b9f9440d7de2ded6596cc2c8b8dc2eaf936a476049f898c4000000006a4730440220450fb5aeed8dc351ec85899cb8fae17d77ea202e9b0c1e7433db4595dbed65de02205e6a726b3e87e533714e6b500d4ca6efd9d889e25e90c09b3f00387c06745ee101210227d85ba011276cf25b51df6a188b75e604b38770a462b2d0e9fb2fc839ef5d3ffdffffff0100e1f50500000000160014b9bac27d84e1c0aea72edcd2167403c4411d96e500000000'}